:020000040800F2
:10000000E8080020490100087D1E0008411C000886
:10001000791E0008F50600086126000800000000AF
:10002000000000000000000000000000DD230008C8
:100030000107000800000000951F0008DF230008EA
:100040006301000863010008630100086301000800
:1000500063010008630100086301000863010008F0
:1000600063010008630100086301000863010008E0
:1000700063010008630100086301000863010008D0
:1000800063010008630100086301000863010008C0
:1000900063010008630100086301000863010008B0
:1000A00063010008630100086301000863010008A0
:1000B0006301000863010008630100086301000890
:1000C0006301000863010008630100086301000880
:1000D0006301000863010008630100086301000870
:1000E0006301000863010008630100086301000860
:1000F0006301000863010008630100086301000850
:10010000630100086301000863010008630100083F
:10011000630100086301000863010008630100082F
:10012000630100086301000863010008630100081F
:10013000DFF810D000F04EFA0048004739300008D0
:10014000AFF30080E80800200648804706480047D3
:10015000FEE7FEE7FEE7FEE7FEE7FEE7FEE7FEE777
:10016000FEE7FEE74D24000831010008202A04DBE9
:10017000203A21FA02F00021704721FA02F3D04020
:10018000C2F120029140084319467047D2B201E003
:1001900000F8012B491EFBD270470022F6E710B58C
:1001A00013460A4604461946FFF7F0FF204610BDE5
:1001B00000F0004230F000400AD0C10D01F560713E
:1001C000C0F3160042EA0151C208400711437047CC
:1001D00000200146704730B50B4601460020202222
:1001E000012409E021FA02F59D4205D303FA02F544
:1001F000491B04FA02F52844151EA2F10102F1DCA4
:1002000030BD2DE9F05F0546002092469B468846AA
:100210000646814640241BE0284641464746224682
:10022000FFF7A4FF53465A46C01A914110D3114616
:100230001846224600F0E0F92D1A67EB01084F46F8
:1002400022460120002100F0D7F917EB00094E41AA
:10025000201EA4F10104DFDC484631462A4643460D
:10026000BDE8F09F2DE9FE4F804681EA0300C00FF4
:100270000C46009021F0004123F00045B8EB02004D
:10028000A94105D24046214690461C460B460246EF
:1002900023F00040104347D0270DC7F30A00C3F3F3
:1002A0000A510290401A019040286BDAC3F3130000
:1002B00040F4801B0098924620B10023D2EB030A41
:1002C00063EB0B0B01985946C0F14002504600F019
:1002D00093F906460D4650465946019A00F09BF99F
:1002E00010EB08006141002487EA115284EAE773A9
:1002F0001A4340D0009A62B3019A012A4FEA07528A
:1003000015DC001B61EB02014FF0004202EA0752CC
:10031000CDE90042001C41F5801132462B4600F029
:100320009BF903B0BDE8F08F40462146F9E7001B7A
:1003300061EB0201001C41F5801300185B4120189D
:10034000A2F5001747EB030140EAD570B6196D41DD
:1003500011E06D084FEA360645EAC0754FEA0752CC
:10036000001B61EB0201001C41F5801149084FEAB6
:1003700030000019514132462B4603B0BDE8F04F22
:1003800000F05BB90098012240000023D0EB02028C
:1003900063EBE073009821464FEAE074B8EB00008D
:1003A00061EB0401E9E783F000435BE781F0004182
:1003B00058E72DE9FE4F81EA030404F0004421F0E0
:1003C000004100944FF0000B23F0004350EA010479
:1003D0005ED052EA03045BD0C3F30A54C1F30A555A
:1003E0002C44A4F2F3340194A0FB0254C1F3130192
:1003F00041F48011C3F3130343F4801301FB02445F
:1004000000FB034E840A970A44EA815447EA835763
:10041000A4FB076802958D0A05FB07854FEA932C1C
:1004200004FB0C542705029D4FEA065847EA16378D
:10043000B5EB08056EEB070C870E920E47EA8117A5
:1004400042EA8312A7FB0201B6EB0B0164EB000446
:100450002B0D43EA0C335E1844EB1C50DA46514630
:10046000E7FB0201C5F313044FEA0B3343EA1453CD
:100470004FEA0432019C43EA0603A4F10C040294FF
:10048000009CCDE900B400F0E7F803B0BDE8F08FC0
:1004900000200146F9E72DE9F04D81EA030404F05C
:1004A000004B21F0004514464FF0000A23F00041B4
:1004B00050EA050220D054EA01021DD0C5F30A57C4
:1004C0000246C5F31303C1F31300C1F30A5640F407
:1004D000801543F48013A7EB0608101BD64608F2DC
:1004E000FD3873EB050002D308F1010801E0921812
:1004F0005B41B8F1000F03DA00200146BDE8F08D42
:1005000000204FF48011064684460EE0171B73EB63
:10051000050705D3121B63EB050306434CEA010CE8
:1005200049084FEA300092185B4150EA0107EDD1CB
:1005300052EA030012D082EA040083EA050108436C
:1005400005D0101BAB4106D20122002306E0002299
:100550004FF0004302E06FF0010253101AEB060067
:100560004CEB085110EB0A0041EB0B01BDE8F04DDC
:1005700000F063B8C1F30A52C1F3130140F2FF3334
:1005800041F480119A4202DA00200146704740F29D
:1005900033439A42A2F2334202DC5242FFF7E6BDF5
:1005A00000F02AB830B5041E71F1000404DB4FF0EE
:1005B0000044404264EB0101141E73F1000405DBAA
:1005C0001C464FF00043524263EB0403994208BFBC
:1005D000904230BD064C074D06E0E06840F0010354
:1005E00094E8070098471034AC42F6D3FFF7A4FD17
:1005F000A8380008C8380008202A04DB203A00FA8E
:1006000002F1002070479140C2F1200320FA03F369
:10061000194390407047202A06DBCB17203A41FA55
:1006200002F043EAE07306E041FA02F3D040C2F17F
:100630002002914008431946704710B5141E73F10B
:10064000000408DA401C41F1000192185B411A4392
:1006500001D120F0010010BD2DE9F04D92469B46DE
:1006600011B1B1FA81F202E0B0FA80F22032904684
:10067000FFF7C2FF04460F4640EA0A0041EA0B01B9
:1006800053465A46084313D0114653EA010019D085
:10069000C8F140025046FFF769FD05460E46504638
:1006A00059464246FFF7A8FF084305D0012004E061
:1006B00020463946BDE8F08D0020054346EAE07645
:1006C0002C4337430A986305E40AA0EB0800002294
:1006D000FD0A44EA47540A3002D500200146E9E702
:1006E000010510196941DDE9084500196941BDE8B6
:1006F000F04DA2E700BFFEE7024641EA0220704744
:10070000704700002DE9F04704460D469046994693
:10071000089E98F8007009F0070008280DD2DFE85D
:1007200000F00405060708090A0B07E01EE035E0A3
:100730004CE063E07AE091E0A8E000BF07F08003BE
:1007400013B1614B1B7F06E05F4B1B7F012B01D078
:10075000012300E000231A46A9B2A0B201F004FD73
:10076000701E061E01D1BDE8F08700BF07F04003F0
:1007700013B1554B1B7F06E0534B1B7F012B01D060
:10078000012300E000231A46A9B2631C98B201F0CD
:10079000EBFC701E061E00D1E5E700BF07F020034A
:1007A00013B1494B1B7F06E0474B1B7F012B01D048
:1007B000012300E000231A46A9B2A31C98B201F05D
:1007C000D3FC701E061E00D1CDE700BF07F010035A
:1007D00013B13D4B1B7F06E03B4B1B7F012B01D030
:1007E000012300E000231A46A9B2E31C98B201F0ED
:1007F000BBFC701E061E00D1B5E700BF07F0080362
:1008000013B1314B1B7F06E02F4B1B7F012B01D017
:10081000012300E000231A46A9B2231D98B201F07B
:10082000A3FC701E061E00D19DE700BF07F0040365
:1008300013B1254B1B7F06E0234B1B7F012B01D0FF
:10084000012300E000231A46A9B2631D98B201F00B
:100850008BFC701E061E00D185E700BF07F0020367
:1008600013B1194B1B7F06E0174B1B7F012B01D0E7
:10087000012300E000231A46A9B2A31D98B201F09B
:1008800073FC701E061E00D16DE700BF07F0010368
:1008900013B10D4B1B7F06E00B4B1B7F012B01D0CF
:1008A000012300E000231A46A9B2E31D98B201F02B
:1008B0005BFC701E061E00D155E7083408F10100EC
:1008C000804607783AE70000C400002072B600BFF7
:1008D000FEE7000010B504460A2C02D100F0BEF875
:1008E00006E00D2C04D003480069016820468847C3
:1008F00010BD0000C40000202DE9FC470546344926
:1009000009698869294600F065F80646002E5CD022
:100910003188691A706800EBC104A7786068DFF855
:10092000B0C0CDE90070DCF810C09CF8143022781B
:10093000DFF89CC0BCF91610BCF9140001F08EF968
:1009400023480069407D22490969097D88422FDDDD
:100950001F48006990F815801D48006990F81490B0
:100960001B48007F012801D0012000E00020DFF8B3
:1009700060C00090BCF814C094F800A0D4441FFAE2
:100980008CF2DFF84CC0BCF816C0C4441FFA8CF3DC
:10099000DFF83CC0BCF816C0CC441FFA8CF1DFF87D
:1009A00030C0BCF814C01FFA8CF001F009FB00BF86
:1009B0000748B0F914006178054A1269927D01FB7D
:1009C000020000B20249888200BFBDE8FC87000037
:1009D000C400002007E002888A4203DC42888A4281
:1009E00000DB02E080680028F5D100BF70470000FE
:1009F00070B504460949096988692146FFF7EAFF8D
:100A000005464DB12988611A686810F8310003491C
:100A10000969897D484370BD0020FCE7C4000020BF
:100A200001220A80704770B504460D462946A06928
:100A3000FFF7D0FF06460EB1012070BD0020FCE795
:100A4000F8B504460D4616461F460020BBB2B2B2AA
:100A5000A9B20090A0B201F0B3FAF8BD00B500F061
:100A6000C5F80349C98A084400B20149C88200BDDB
:100A7000C40000202DE9FC4704460CB9BDE8FC8702
:100A800000F0B4F807464A48B0F9148000F0B4F812
:100A900006464748C08A801B00B24549C88274E0B8
:100AA00047F6FF71204600F031F982465146204654
:100AB00000F024F905463E48807E00F0030001283E
:100AC00007D0022807D1284605EBD0714FEA61090B
:100AD00004E0A94602E04FF0000900BF00BF34481F
:100AE000808AA0EB090000B231498882ADF800008D
:100AF000BDF800002844401E00B2ADF804000846CE
:100B0000C08AADF80200BDF802003844401E00B2B1
:100B1000ADF806006A465146204600F0D7F8BDF809
:100B200002002349C8825146204600F0B7F8044429
:100B300020780A2802D020780D281CD11C48807EFD
:100B400000F00300012802D0022805D100BF0FFAEF
:100B500088F01749888203E000201549888200BF89
:100B600000BF20780A280CD11148C08A384400B24E
:100B70000F49C88205E0BDF80000284400B20C49C6
:100B80008882207800B903E0641C2078002887D18F
:100B900000BF0748C08A304400B20549C8820846F1
:100BA000B0F91A0020F00300488300BF66E7000098
:100BB000C400002070B506460C46154620B2044914
:100BC000888228B2C8823046FFF754FF70BD00000B
:100BD000C400002070B504460348006941682046FF
:100BE00088470546284670BDC400002001490969B0
:100BF000487D7047C400002000201049897E01F024
:100C00000C01042904D008290ED00C2913D104E0CA
:100C10000A490969097D481E0DE0084A1269117DDB
:100C200001EBD172501006E0044A1269117D01EB0C
:100C3000D172501000BF00BF70470000C4000020F8
:100C400010B52E200E49087000200E4908804880FB
:100C500001F05AF8401E00B20A49888001F056F8A7
:100C6000401E00B20749C88000208882C88206481A
:100C7000086101204872087701F02EFB002010BDAA
:100C80002C000020C4000020883800080146024AD9
:100C9000106901B111617047C40000202DE9F041D5
:100CA00005460E46002705E0284601F000FD0446F3
:100CB00025442744301EA6F10106F5D13846BDE88B
:100CC000F08110B501F0B0FA10BD00007CB505460A
:100CD0000E4614462068009060680190BDF8000040
:100CE00005498882BDF80200C8826A463146284616
:100CF00001F0B8FC7CBD0000C400002070B50446C3
:100D00000D462946204601F0D5FC70BD70B504465D
:100D10000D462946204601F0F0FC70BD70B5044632
:100D200000F0B6F906462546681C10B10448007864
:100D3000054400BF00F0ACF9801BA842FAD370BD97
:100D4000240000202DE9F847024600239C467BE161
:100D50004FF0010808FA03F4D1F8008008EA040013
:100D6000A0427DD1DFF8F4A2D1F80480A8EB0A09F3
:100D7000D0453AD014DCB8F1030F50D009DCB8F1FB
:100D8000000F31D0B8F1010F1CD0B8F1020F49D1DA
:100D900020E0B8F1110F18D0B8F1120F42D11EE0C7
:100DA000B9F5881F25D006DCB9F5803F20D0B9F50C
:100DB000801F37D11AE0B9F5001F18D0B9F5041F0C
:100DC00030D117E0D1F80CC02DE0D1F80C8008F13B
:100DD000040C28E0D1F80C8008F1080C23E0D1F8CD
:100DE0000C8008F10C0C1EE000BF00BF00BF00BF6C
:100DF00000BF00BFD1F80880B8F1000F02D14FF05A
:100E0000040C0BE0D1F80880B8F1010F03D14FF0CA
:100E1000080C146102E04FF0080C546103E04FF03D
:100E2000000C00E000BF00BFFF2801D8904601E0A1
:100E300002F104084646FF2802D84FEA830803E07F
:100E4000A3F108084FEA88084746D6F800804FF01B
:100E50000F0909FA07F928EA09080CFA07F900E06E
:100E60007AE048EA0908C6F80080D1F8048008F062
:100E70008058B8F1805F6FD100BFDFF8E481D8F807
:100E8000188048F00108DFF8D891C9F81880C846E2
:100E9000D8F8188008F00108CDF8008000BF00BF26
:100EA0004FEAB9384FEA930958F829504FEA837846
:100EB0004FEA18794FF00F0808FA09F825EA0805F3
:100EC000DFF8A081424502D14FF0000824E0DFF8AE
:100ED0009881424502D14FF001081DE0DFF88C8176
:100EE000424502D14FF0020816E0DFF88481424506
:100EF00002D14FF003080FE0DFF87881424502D1BC
:100F00004FF0040808E0DFF87081424502D14FF04D
:100F1000050801E04FF006084FEA83794FEA197996
:100F200008FA09F848EA0505DFF850814FEA930905
:100F300048F82950D1F8048008F48018B8F5801FCB
:100F40000BD1DFF83C81D8F8008048EA0008DFF8D0
:100F50003091C9F800800AE075E0DFF82481D8F804
:100F6000008028EA0008DFF81891C9F80080D1F85D
:100F7000048008F40018B8F5001F0ED1DFF80081D6
:100F800008F10408D8F8008048EA0008DFF8F0907B
:100F900009F10409C9F800800DE0DFF8E48008F1E8
:100FA0000408D8F8008028EA0008DFF8D49009F196
:100FB0000409C9F80080D1F8048008F40038B8F5B5
:100FC000003F0ED1DFF8B880A8F10408D8F80080FF
:100FD00048EA0008DFF8A890A9F10409C9F80080E0
:100FE0000DE0DFF89C80A8F10408D8F8008028EA1A
:100FF0000008DFF88C90A9F10409C9F80080D1F845
:10100000048008F48038B8F5803F0ED1DFF8708096
:10101000A8F10808D8F8008048EA0008DFF86090D6
:10102000A9F10809C9F800800DE0DFF85480A8F1A3
:101030000808D8F8008028EA0008DFF84490A9F1F1
:101040000809C9F800805B1CD1F8008028FA03F871
:10105000B8F1000F7FF47CAEBDE8F88700001110F6
:101060000010024000080140000C01400010014047
:101070000014014000180140001C0140080001401C
:10108000080401400AB1016101E00B0403617047EB
:1010900001480068704700001C00002003480068F9
:1010A0000349097808440149086070471C00002082
:1010B0002400002010B50848006840F010000649E0
:1010C0000860032000F098F80F2000F007F800F007
:1010D0002BF8002010BD00000020024070B504462F
:1010E0000E4800784FF47A71B1FBF0F00C490968B2
:1010F000B1FBF0F5284600F0E9FB08B1012070BD16
:10110000102C07D200222146501E00F037F8054867
:10111000046001E00120F2E70020F0E72400002055
:10112000280000202000002008B500BF1148806979
:1011300040F001000F4988610846806900F0010015
:10114000009000BF00BF00BF0846C06940F080505B
:10115000C8610846C06900F08050009000BF00BF21
:1011600000BF0549486820F0E06040F0007048602A
:1011700000BF08BD00100240000001402DE9F05FF3
:1011800080460D461646002701F0E0FA074639462C
:101190002A46334601F00700C0F1070ABAF1040FEE
:1011A00002D94FF0040A01E0C0F1070AD14600F16C
:1011B000040ABAF1070F02D24FF0000A01E0A0F1D1
:1011C000030AD4464FF0010A0AFA09FAAAF1010A01
:1011D0000AEA020A0AFA0CFA4FF0010B0BFA0CFBAE
:1011E000ABF1010B0BEA030B4AEA0B042146404624
:1011F00001F0B4FABDE8F09F00BF00F00702064B13
:1012000019684FF6FF031940044B0B4343EA0221D0
:10121000014B196000BF70470CED00E00000FA05BB
:1012200070B504460D460CB9012070BD5A480068DF
:1012300000F00700A8420ED25748006820F00700CF
:101240002843554908600846006800F00700A84296
:1012500001D00120E9E7207800F0020002281DD12A
:10126000207800F00400042805D14C48406840F480
:10127000E0604A494860207800F00800082805D15D
:101280004648406840F460504449486043484068DC
:1012900020F0F000A168084340494860207800F041
:1012A000010078B36068012806D13C48006800F46A
:1012B000003090B90120B8E76068022806D13748AD
:1012C000006800F0007040B90120AEE733480068C4
:1012D00000F0020008B90120A7E73048406820F07C
:1012E0000300616808432D494860FFF7D1FE0646B8
:1012F00009E0FFF7CDFE801B41F28831884202D918
:10130000032092E707E02548406800F00C00616880
:10131000B0EB810FEDD12048006800F00700A84233
:101320000ED91D48006820F0070028431A490860BC
:101330000846006800F00700A84201D0012074E7C9
:10134000207800F00400042807D11448406820F4F5
:10135000E060E168084311494860207800F0080027
:10136000082808D10D48406820F46050216940EAFF
:10137000C1000A49486000F03FF808494968C1F3D4
:101380000311074A515CC8400649086006480068D6
:10139000FFF7A4FE002048E70020024000100240B2
:1013A0007232000828000020200000200148006858
:1013B000704700002800002000B5FFF7F7FF044940
:1013C0004968C1F30221034A515CC84000BD0000D6
:1013D000001002408232000800B5FFF7E7FF044921
:1013E0004968C1F3C221034A515CC84000BD0000F6
:1013F000001002408232000870B500210022002453
:1014000000230020134D696801F00C05F5B1042D8F
:1014100002D0082D19D101E00F4819E00F4DC1F39A
:101420008346AB5D01F4803555B10A4D6D68C5F357
:1014300040450B4E725D084D5D43B5FBF2F402E092
:10144000084D03FB05F4204602E000BF024800BF40
:1014500000BF70BD0010024000127A006032000828
:101460007032000800093D00F8B504460CB90120AF
:10147000F8BD207800F00100002878D0F8484068D6
:1014800000F00C0004280CD0F548406800F00C0077
:10149000082811D1F248406800F48030B0F5803F50
:1014A0000AD1EF48006800F4003000285FD060687F
:1014B00000285CD10120DBE700BF6068B0F5803F09
:1014C00006D1E748006840F48030E549086028E02C
:1014D000606858B9E248006820F48030E04908604C
:1014E0000846006820F4802008601AE06068B0F5C3
:1014F000A02F0BD1DA48006840F48020D84908605A
:101500000846006840F4803008600AE0D44800686B
:1015100020F48030D24908600846006820F480201A
:10152000086000BF606888B1FFF7B2FD054606E0BD
:10153000FFF7AEFD401B642801D9032098E7C84897
:10154000006800F400300028F2D010E0FFF7A0FDA2
:10155000054606E0FFF79CFD401B642801D90320E7
:1015600086E7BF48006800F400300028F2D12078F8
:1015700000F00200022857D1B948406800F00C0082
:1015800050B1B748406800F00C00082818D1B448A2
:10159000406800F4803098B9B148006800F002005B
:1015A00020B12069012801D0012061E7AC48006822
:1015B00020F0F800616940EAC100A949086033E001
:1015C0002069E8B10120A7490860FFF761FD0546E1
:1015D00006E0FFF75DFD401B022801D9032047E725
:1015E0009F48006800F002000028F2D09C48006884
:1015F00020F0F800616940EAC1009949086013E0F1
:10160000002098490860FFF743FD054606E0FFF714
:101610003FFD401B022801D9032029E790480068BC
:1016200000F002000028F2D1207800F0080008281D
:101630002DD1A069B8B101208B490860FFF728FDC2
:10164000054606E0FFF724FD401B022801D90320D0
:101650000EE78348406A00F002000028F2D0012023
:1016600000F09AFC13E000207F490860FFF710FDAE
:10167000054606E0FFF70CFD401B022801D90320B8
:10168000F6E67748406A00F002000028F2D12078A0
:1016900000F00400042873D100277148C06900F0ED
:1016A000805070B900BF6E48C06940F080506C49EE
:1016B000C8610846C06900F08050009000BF00BFBC
:1016C00001276A48006800F48070B0B96748006874
:1016D00040F4807065490860FFF7DAFC054606E0D3
:1016E000FFF7D6FC401B642801D90320C0E65F4801
:1016F000006800F480700028F2D000BFE068012884
:1017000006D15748006A40F001005549086227E0B9
:10171000E06858B95248006A20F001005049086258
:101720000846006A20F00400086219E0E068052815
:101730000BD14B48006A40F0040049490862084652
:10174000006A40F0010008620AE04548006A20F0A3
:101750000100434908620846006A20F0040008625C
:1017600000BFE068A0B1FFF793FC054609E0FFF772
:101770008FFC401B41F28831884202D9032077E672
:1017800022E03748006A00F002000028EFD012E0A3
:10179000FFF77EFC054608E0FFF77AFC401B41F2AC
:1017A0008831884201D9032062E62D48006A00F0A2
:1017B00002000028F0D1012F05D12948C06920F08E
:1017C00080502749C86100BFE069C8B32448406819
:1017D00000F00C00082860D0E069022848D1002001
:1017E00020490866FFF754FC054606E0FFF750FC69
:1017F000401B022801D903203AE61948006800F08E
:1018000000700028F2D1206AB0F5803F07D114485B
:10181000406820F40030A168084311494860D4E9C9
:10182000080108430E49496821F4741108430C4922
:10183000486001200B490866FFF72AFC054607E0CF
:101840003DE0FFF725FC401B022801D903200FE6ED
:101850000348006800F000700028F2D02FE000007C
:1018600000100240000042428004424200700040EA
:10187000002014490866FFF70BFC054606E0FFF759
:1018800007FC401B022801D90320F1E50E4800683F
:1018900000F000700028F2D111E0E069012800D1C9
:1018A000E6E50948466806F48031206A814204D1A1
:1018B00006F47011606A814201D00120D8E5002051
:1018C000D6E50000000042420010024070B5044618
:1018D0002546681EB0F1807F01D301200FE0681E0D
:1018E0004FF0E02148610F214FF0FF3000F036FF4C
:1018F00000204FF0E021886107200861002070BDC2
:1019000030B502460B4600BF92F83C00012801D1D9
:10191000022030BD012082F83C0000BF022082F886
:101920003D00106844681068816824F070041868ED
:10193000044310684460144D1068A84213D0134D3E
:101940001068A8420FD01068B0F1804F0BD0104D36
:101950001068A84207D00F4D1068A84203D00E4D62
:101960001068A84205D121F0800158680143106831
:101970008160012082F83D0000BF002082F83C0019
:1019800000BF00BFC5E70000002C0140003401404B
:101990000004004000080040000C004010B5044660
:1019A0000CB9012010BD94F83D0028B9002084F83E
:1019B0003C00204600F026F8022084F83D00211D5E
:1019C000206800F045FD012084F8460000BF84F83F
:1019D0003E0001213F200155402001554120015585
:1019E00000BF00BF012084F842004320015544207D
:1019F00001554520015500BF012084F83D0000201D
:101A0000D0E7000008B5094A016891420DD100BF36
:101A10000749C96941F00201054AD1611146C96906
:101A200001F00201009100BF00BF08BD00040040AA
:101A3000001002402DE9F04104460D46002700BF8A
:101A400094F83C00012802D10220BDE8F081012079
:101A500084F83C0000BF022084F83D0020688668BE
:101A600026F0770626F47F4620688660286850288E
:101A700033D00CDC202850D004DC00284BD01028B8
:101A800051D149E0302849D040284CD139E0602874
:101A90002DD0702807D0B0F5805F03D0B0F5005F7F
:101AA00041D10DE041E0D5E902136A68206800F0F9
:101AB0001DFD2068866846F077062068866034E061
:101AC000D5E902136A68206800F010FD206880687C
:101AD00040F480402168886027E0EA6869682068EF
:101AE00000F018FD5021206800F00BFD1DE0EA68B1
:101AF0006968206800F021FD6021206800F001FD88
:101B000013E0EA686968206800F004FD402120685D
:101B100000F0F7FC09E000BF00BF00BF29682068A3
:101B200000F0EFFC01E0012700BF00BF012084F8B6
:101B30003D0000BF002084F83C0000BF384684E729
:101B400010B504460CB9012010BDA06900B100E039
:101B500000BF94F8410028B9002084F840002046D6
:101B600000F02AF8242084F841002068C06820F49E
:101B700000502168C860204600F0F4FC206800692D
:101B800020F49040216808612068406920F02A0014
:101B9000216848612068C06840F400502168C8602E
:101BA00000206064202084F8410084F84200002076
:101BB000606300BFC8E7000010B586B0044600208F
:101BC00002900390049005901A49206888422ED113
:101BD00000BF1948806940F4804017498861084671
:101BE000806900F48040019000BF00BF00BF08463C
:101BF000806940F0040088610846806900F00400B4
:101C0000019000BF00BF48150290022003900320FE
:101C1000059002A90948FFF795F84FF480600290FB
:101C200000200390049002A90448FFF78BF806B047
:101C300010BD0000003801400010024000080140C3
:101C400000BFFEE708B50A20009002E00098401EA1
:101C5000009000980028F9D108BD00002DE9FF5F31
:101C60000646884617461D46DDE90EA908EB050025
:101C7000401E0390F019A0F1010B2248B0F90200B8
:101C8000A0EB0804002C09DD2D1B002D01DCBDE8B4
:101C9000FF9F1C48B0F9028004FB0A991948B0F96B
:101CA00006100398441A002C03DD2D1B002D00DCC8
:101CB000EDE71448B0F90400ABEB0004002C00DDA4
:101CC0003F1B00240F48B0F90000B0420BDD0D4867
:101CD000B0F90000841B3F1B09EBE409E01006EBA0
:101CE000C00604F00704002F00DCD0E72B463A467C
:101CF00041463046CDE900A9029400F009F800BF42
:101D0000C5E70000C40000208020704740207047D5
:101D10002DE9F84F81460D4616461F46DDE90B8B2F
:101D2000DDF828A0002408E061195B4642464846D9
:101D30000096FEF7E7FCD044641CBC42F4DBBDE82F
:101D4000F88F000000B585B000200190029003904C
:101D5000049000BF1D48806940F008001B4988615D
:101D60000846806900F00800009000BF00BF00BF77
:101D70000846806940F0040088610846806900F0E8
:101D80000400009000BF00BF01224FF440511048F2
:101D9000FFF778F94FF480500190012002900390F2
:101DA0000320049001A90A48FEF7CCFF4FF400502D
:101DB000019011200290012003900320049001A9BA
:101DC0000348FEF7BFFF05B000BD00000010024051
:101DD000000C014000B587B00020039004900590EE
:101DE000069001900290144814490860472048600A
:101DF0000021124881604FF6FF71C160002101612E
:101E00008161FFF7CBFD08B1FEF760FD4FF4805014
:101E1000039003A90948FFF70DFE08B1FEF756FD30
:101E200000200190029001A90448FFF769FD08B164
:101E3000FEF74CFD07B000BD000400403400002058
:101E400010B50B480B4908604FF4E13048600021A1
:101E500008488160C16001610C21416100218161FC
:101E6000C161FFF76DFE08B1FEF730FD10BD000047
:101E7000003801407C00002000BFFEE700BFFEE705
:101E800010B50024012251030948FFF7FBF8FFF7C2
:101E9000D9FE012211030648FFF7F4F8FFF7D2FE3E
:101EA00000224FF480510248FFF7ECF810BD00000B
:101EB000000C014070B5044600224FF480511648D2
:101EC000FFF7E0F8002523E004F0800028B10122AC
:101ED00051031148FFF7D6F805E000224FF40051F6
:101EE0000D48FFF7CFF86006040EFFF7ABFE0122A6
:101EF00011030948FFF7C6F8FFF7A4FE00224FF4CC
:101F000080510548FFF7BEF8FFF79CFE681CC5B27C
:101F1000082DD9DB70BD0000000C014010B5012276
:101F200051030C48FFF7AEF8012211030948FFF7EF
:101F3000A9F8FFF787FE00224FF400510548FFF78C
:101F4000A1F8FFF77FFE00224FF480510148FFF710
:101F500099F810BD000C014010B500224FF48051DB
:101F60000B48FFF78FF800224FF400510848FFF7A5
:101F700089F8FFF767FE012211030548FFF782F891
:101F8000012251030248FFF77DF8FFF75BFE10BD09
:101F9000000C01407047000008B508490968C908ED
:101FA0004FF47A72B1FBF2F14143009100BF00BFE0
:101FB00000994A1E00920029F9D108BD280000208E
:101FC0002DE9F84305460C4617469846DDF8209063
:101FD000802D01DA402C01DBBDE8F883E819802868
:101FE00002DBC5F1800087B204EB0800402803DB68
:101FF000C4F140001FFA80F800260CE0A01983B25B
:10200000E81982B2A01981B22846CDF8009000F0FC
:1020100006F8701CC6B24645F0DD00BFDCE72DE9CE
:10202000FF4F04460D4616461F46802C00DB7F24DA
:10203000802E00DB7F26402D00DB3F25402F00DB7C
:102040003F27B44201DA301B00E0A01B0FFA80FBEF
:10205000BD4201DA781B00E0E81B0FFA80F9B442B8
:1020600001DA012001E04FF0FF300390BD4201DAB8
:10207000012001E04FF0FF300290CB4501DD5946D1
:1020800001E0C9F10001084601EBD071491009B225
:102090000191BBF1000F1ED1AF4204DA0FFA87FAAB
:1020A0002F461FFA8AF5A64204DA0FFA86FA264668
:1020B0001FFA8AF40FFA85F809E01FFA88F1204622
:1020C0000D9A00F051F808F101000FFA80F8B845B8
:1020D000F3DDBDE8FF8FB9F1000F1DD1AF4204DA87
:1020E0000FFA87FA2F461FFA8AF5A64204DA0FFA8A
:1020F00086FA26461FFA8AF40FFA84F809E01FFAD6
:1021000088F029460D9A00F02FF808F101000FFA27
:1021100080F8B045F3DDDCE722E0294620460D9A41
:1021200000F022F8B44202D1BD4200D119E001987A
:102130000090CBF100010098884207DD0198A0EBE8
:10214000090000B201900398204484B200984845E9
:1021500006DA0198584400B201900298284485B2EA
:10216000DBE700BF00BFB4E7F0B503461446802BA1
:1021700001DA402900DBF0BD2148007920B10CB91B
:10218000012000E000200446012C1CD1CD1701EBFA
:102190005575ED1003EBC5151A4E755D0A46CE1741
:1021A00001EB5676F610A1EBC6070126BE4035437B
:1021B000EEB20846CD1701EB5575ED1003EBC515D2
:1021C000104F7E551AE0CD1701EB5575ED1003EB5E
:1021D000C5150C4E755D0A46CE1701EB5676F61006
:1021E000A1EBC6070126BE40B5430846CE1701EB5A
:1021F0005676F61003EBC616024FBD5500BFBAE780
:102200002E000020E400002010B504460CB9002088
:1022100000E0FF2002464FF480610248FDF7B6FF60
:1022200010BD0000E400002010B5002417E004F108
:10223000B001C8B2002100F017F80021084600F0F4
:1022400013F80021102000F00FF80649802202FB4D
:1022500004104022802100F01EF8601CC4B2082C3B
:10226000E5DB10BDE400002070B505460C46FFF725
:1022700055FE7820FFF71EFEFFF702FE2046FFF70F
:1022800019FEFFF7FDFD2846FFF714FEFFF7F8FDE6
:10229000FFF762FE70BD2DE9F04105460E46174678
:1022A000FFF73CFE7820FFF705FEFFF7E9FD384613
:1022B000FFF700FEFFF7E4FD002406E0285DFFF7CE
:1022C000F9FDFFF7DDFD601C84B2B442F6DBFFF7D9
:1022D00043FEBDE8F081000010B56420FEF71EFD4E
:1022E0000021AE20FFF7C0FF00212020FFF7BCFF38
:1022F00000211020FFF7B8FF0021B020FFF7B4FF46
:102300000021C820FFF7B0FF00210846FFF7ACFF0F
:1023100000211020FFF7A8FF00214020FFF7A4FFB5
:1023200000218120FFF7A0FF0021FF20FFF79CFF85
:102330000021A120FFF798FF0021A620FFF794FFBE
:102340000021A820FFF790FF00213F20FFF78CFF1E
:102350000021A420FFF788FF0021D320FFF784FF8E
:1023600000210846FFF780FF0021D520FFF77CFF02
:102370000021F020FFF778FF0021D920FFF774FF3C
:1023800000212220FFF770FF0021DA20FFF76CFF09
:1023900000211220FFF768FF0021DB20FFF764FF18
:1023A00000212020FFF760FF00218D20FFF75CFF58
:1023B00000211420FFF758FF0021AF20FFF754FF42
:1023C0000020FFF721FFFFF72FFF002002490880C0
:1023D00048800120487110BD2E000020704710B5C4
:1023E000FEF75CFE10BD00B58FB0282105A8FDF7F3
:1023F000D4FE14216846FDF7D0FE012005900004AC
:102400000690002007900120099002200C90C10343
:102410000D914FF4E0110E9105A8FFF725F808B1D2
:10242000FEF754FA0F200090022001900020029045
:102430004FF4806003900020049002216846FEF76C
:10244000EFFE08B1FEF742FA0FB000BD7047000082
:1024500010B50268204B98420ED0204B98420BD00A
:10246000B0F1804F08D01E4B984205D01D4B9842CA
:1024700002D01D4B984203D122F070024B681A43E0
:10248000154B98420ED0154B98420BD0B0F1804FAF
:1024900008D0134B984205D0124B984202D0124BF1
:1024A000984203D122F44072CB681A4322F0800391
:1024B0004C6943EA040202608B68C3620B68836262
:1024C000054B984202D0054B984201D10B6903633A
:1024D0000123436110BD0000002C01400034014085
:1024E0000004004000080040000C004030B50C46DD
:1024F000816821F47F4142EA032525432943816015
:1025000030BD0A46816821F0700142F0070319438B
:102510008160704730B50B461446026A056A25F0A3
:1025200001050562816921F0F00141EA041122F000
:102530000A021A438161026230BD30B50B4614466F
:10254000026A056A25F010050562816921F470416F
:1025500041EA043122F0A00242EA031281610262E0
:1025600030BD000070B504462168096921F440516E
:10257000E2681143226811612269A168114362690E
:1025800041EA02052168C96841F20C62914329437E
:102590002268D1602168496921F44071A269114320
:1025A000226851612D4A2168914202D1FEF714FF41
:1025B00001E0FEF701FF00EBC00101EB00116268D2
:1025C0009200B1FBF2F100EBC00202EB0012636873
:1025D0009B00B2FBF3F26423B2FBF3F202EBC20303
:1025E00003EB0212A1EB8201322202EB0111642201
:1025F000B1FBF2F101F0F00100EBC00202EB0012BE
:1026000063689B00B2FBF3F26423B2FBF3F201EBCD
:10261000021200EBC00101EB001163689B00B1FBEB
:10262000F3F100EBC00303EB00136668B600B3FBE5
:10263000F6F36426B3FBF6F303EBC30606EB0313D2
:10264000A1EB8301322303EB01116423B1FBF3F10E
:1026500001F00F0111442268916070BD0038014003
:1026600000BFFEE770B504460D46164629462046D3
:1026700000F001F870BD2DE9F04104460D4611E06F
:1026800014F8016B7F2E0ADD14F8017B6D1E3946AC
:102690003046FEF731F88046FEF71CF902E030467E
:1026A000FEF718F9681E051EEADABDE8F08101465A
:1026B000012070472DE9F04704460D460026CCB1B5
:1026C00013E0641C6D1E7F2F0BDD14F8018B6D1E53
:1026D00041463846FEF710F88146FEF77BFA06447D
:1026E00003E03846FEF776FA064427780FB1002D4E
:1026F000E7DA00BF3046BDE8F08710B502460B466A
:10270000002009E0521C7F2902DD401C521C02E01F
:102710000A2900D110BD401C117809B19842F1DBA3
:1027200000BFF7E70FB4084B10B504A902AA03983D
:1027300000F0FAF8044602A9002000F078FC2046D8
:1027400010BC5DF814FB00002F3000080248006840
:10275000C0F30220704700000CED00E010B5002827
:1027600004DB0A07130E054A135406E00A07140E89
:10277000034A00F00F031B1FD45410BD00E400E017
:1027800018ED00E002E008C8121F08C1002AFAD1C3
:1027900070477047002001E001C1121F002AFBD1E1
:1027A000704700002DE9FF5F82B00021DDE90430B1
:1027B000020DDDF840B0034318D044F61050A2F2E9
:1027C000FF3242431514119801281FD0A5EB0B00CE
:1027D000401C5FEA000A4FF000064E4FDFF83891C8
:1027E000B046504615D5CAF1000413E011980124F3
:1027F0004AA3012801D16FEA0B010298119AC0E99E
:102800000031C0E9024206B0BDE8F09FCBF1000004
:10281000DFE704460021404A491842EB0450CDE965
:10282000001012E0E00707D032463B4640464946DA
:10283000FDF7BFFD8046894632463B4610461946A5
:10284000FDF7B7FD06460F466410002CEAD1DDE91E
:102850000401DDE90023BAF1000F06DAFDF7A9FD56
:1028600042464B46FDF7A5FD05E0FDF714FE424646
:102870004B46FDF710FE04460E460022284BFDF79E
:1028800091FE03D84FF0FF30014607E00022254BB0
:1028900020463146FDF7E6FCFDF76CFE102409E00A
:1028A000002C0ADB0A220023FDF7ABFC039B30322D
:1028B0001A55641E50EA0102F2D1641C039AC4F155
:1028C00011031444119A012A03D0012208430DD1A7
:1028D0000AE0084304D000204FF0110B119072E77A
:1028E000A3EB0B056D1E0DE05B4504DD4FF0000210
:1028F00005F1010504E003DA4FF00002A5F101053E
:10290000002AECD002981199C0E90231C0E90045D3
:1029100079E70000000014400000F03F30000000A4
:102920000000F0430000E03F2DE9FF4F95B09A46CC
:10293000884606460025EEE1252877D10024274663
:10294000F94A0121039400E0044316F8013F203BBB
:1029500001FA03F01042F7D130782A2811D06FF035
:102960002F033078A0F13002092A16D8039A44F0D8
:10297000020402EB820203EB42021044761C039035
:10298000EFE758F8042B0392002A03DA504244F48C
:102990000054039044F00204761C30782E2816D19F
:1029A00016F8010F44F004042A280DD06FF02F020E
:1029B0003078A0F13003092B09D807EB870302EB2D
:1029C0004303C718761CF3E758F8047B761C30786D
:1029D0006C280FD006DC4C2817D068280DD06A2848
:1029E00014D104E0742810D07A280FD10DE044F4FB
:1029F00000140AE044F4801401E044F440147278B6
:102A0000824202D104F58014761C761C3078662848
:102A10000BD013DC582877D009DC002875D0452866
:102A2000F6D04628F4D047281AD193E118E063285D
:102A300035D0642879D0652812D18BE1702873D005
:102A400008DC6728F1D069286FD06E280DD06F2878
:102A500006D1ACE073282CD0752874D0782853D0D8
:102A60005246179990476D1C54E1C4F30250022856
:102A700009D003280DD0D8F8001004280DD00D601F
:102A800008F1040846E1D8F80010EA17C1E900523D
:102A9000F6E7D8F800100D80F2E70D70F0E718F8AF
:102AA000041B8DF8001000208DF80100EB4601207A
:102AB00003E058F804BB4FF0FF3061074FF000010E
:102AC00002D40DE009F101018946B9420FDA8145CE
:102AD000F8DB1BF809100029F4D108E009F1010125
:102AE00089468142FADB1BF809100029F6D10398C8
:102AF0005346A0EB090721463846179A00F080FAA2
:102B0000284400EB090507E044E008E10DE01BF86C
:102B1000010B524617999047B9F10109F7D2534674
:102B200021463846179AF2E039E00A21C4F30252EE
:102B30004FF0000B0091022A06D058F8040BC11781
:102B4000032A09D00AE023E008F1070020F0070279
:102B5000F2E80201904605E000B2C117042A01D153
:102B600040B2C117002906DA0A460021404261EB53
:102B700002012D2202E0220504D52B228DF804202B
:102B8000012203E0E20701D02022F7E7914657E057
:102B90000A2100E010214FF0000B00910BE0102102
:102BA0004FF0000B44F004040827009103E00820D4
:102BB0004FF0000B0090C4F30252022A05D058F8DF
:102BC000040B0021032A08D008E008F1070020F0D8
:102BD0000702F2E80201904603E080B2042A00D125
:102BE000C0B24FF0000922072AD53278702A07D0E8
:102BF000DDF800C08CF0100C5CEA0B0C05D00EE088
:102C000040228DF80420012208E050EA010306D09A
:102C100030238DF804308DF8052002229146009B68
:102C200083F0080353EA0B030AD150EA010201D1F1
:102C3000620705D530228DF804204FF001097F1E70
:102C40003278582A04D039A20C920CAA02920BE0D6
:102C50003BA2F9E75B46009AFDF7D3FA0C9B9B5C1D
:102C6000029A521E0292137050EA0102F2D10298A7
:102C700004A9081A00F1200B600702D524F480345F
:102C800000E001275F4502DDA7EB0B0000E000201C
:102C900000EB0B01009003984944401A0390E003B5
:102CA00006D453462146179A039800F0A9F9054423
:102CB000002706E001A85246C05D179990476D1C99
:102CC0007F1C4F45F6DBE0030CD553462146179A8F
:102CD000039800F095F9054404E030205246179916
:102CE00090476D1C0099481E00900029F5DC08E013
:102CF0000298029952460078491C02911799904710
:102D00006D1CBBF10001ABF1010BF1DC5BE100F0EC
:102D100065F90544761C307800287FF40DAE19B0B3
:102D20002846BDE8F08F0000092801003031323319
:102D300034353637383961626364656600000000F7
:102D400030313233343536373839414243444546E1
:102D500000000000600700D4062708F1070020F0FB
:102D60000700F0E80223804603F0004C5FEA0C0005
:102D700001D097A009E0200501D596A005E0E00765
:102D800001D095A001E0AFF24C001390307823F011
:102D9000004365280CD006DC452809D046281DD004
:102DA00047287FD13BE0662818D067287AD136E0E3
:102DB0000021112F01DB112000E0781CCDE900017A
:102DC00004A90CA8FFF7EEFCDDE90D010C9A4FF009
:102DD000000B07F10109109200914EE04FF0004006
:102DE0000097CDE9011004A90CA8FFF7DBFCDDE991
:102DF0000D020C9B0F994FF0000B9146109300921F
:102E000011B9791C00EB0109B7EB090003D4C0F13B
:102E1000FF3B07F10109A9EB0700019042E0012FF8
:102E200000DA01270021112F01DD112000E03846D2
:102E3000CDE9000104A90CA8FFF7B4FCDDE90D0100
:102E40000C9A00914FF0000BB946109221070FD455
:102E5000009A4A4503DA914601E0A9F10109B9F166
:102E6000010F05DD109AA9F10101515C3029F4D060
:102E7000B84202DA10F1040F03DA0121CDE90110A2
:102E800010E0002803DC8344A9EB000102E0411CB0
:102E9000494500DD8946A0EB0B00401C01904FF036
:102EA00000400290200705D40198484502DB4FF00E
:102EB000FF30019000208DF84B0002980DF14B0778
:102EC000B0F1004F25D002200C902B200D900298DD
:102ED00000280CDA404202902D200D9007E00A21D4
:102EE0000298FDF778F93031029007F8011D0C992E
:102EF000481E0C900029F2DC02980028EFD1791EC0
:102F00000D980870307800F0200040F0450007F878
:102F1000020D11A8C01BC01D02901398007800B1CB
:102F2000012000EB0901019801EBE07102980144D6
:102F30000398401A401E0390E00306D453462146EE
:102F4000179A039800F05CF805441398007818B1BC
:102F50005246179990476D1CE00323D553462146EE
:102F6000179A039800F04CF805441BE0BBF1000FE2
:102F700007DB0098584504DD1098179910F80B00EE
:102F800001E0179930205246904701980BF1010B50
:102F9000401E05F10105019004D12E2052461799DB
:102FA00090476D1CB9F10001A9F10109DEDC05E0D3
:102FB00017F8010B5246179990476D1C0299481E4D
:102FC00002900029F4DC53462146179A03989EE6A6
:102FD0002D0000002B000000200000002DE9F04132
:102FE000044600251E461746880404D405E03946E9
:102FF0002020B0476D1C641EF9D52846BDE8F0813D
:103000002DE9F041044600251E469046C80301D52F
:10301000302700E02027880404D505E041463846E3
:10302000B0476D1C641EF9D52846BDE8F0810A68DA
:10303000531C0B601070704788B0FEF73BF8FFF729
:10304000D2F9FEF77FFEFEF7C5FEFEF7F9FEFDF7AB
:10305000F7FD5848FDF71AFEABE057480068FDF74A
:10306000A7F8044622460B4654A16846FFF75AFBD0
:103070000823802200210846FDF7E2FC00221146C9
:103080006846FDF797FDFDF71CFE4F480068FDF709
:103090008FF8044622460B464CA16846FFF742FBD8
:1030A0000823802209210020FDF7CAFC0922002103
:1030B0006846FDF77FFDFDF704FE47480068FDF711
:1030C00077F8044622460B4644A16846FFF72AFBE0
:1030D0000823802212210020FDF7B2FC12220021D9
:1030E0006846FDF767FDFDF7ECFD41480068FDF718
:1030F0005FF8044622460B463EA16846FFF712FBE6
:10310000082380221B210020FDF79AFC1B220021AE
:103110006846FDF74FFDFDF7D4FD3C480068FDF71C
:1031200047F8044622460B4639A16846FFF7FAFAEB
:103130000823802224210020FDF782FC2422002184
:103140006846FDF737FDFDF7BCFD37480068FDF721
:103150002FF8044622460B4634A16846FFF7E2FAF0
:10316000082380222D210020FDF76AFC2D2200215A
:103170006846FDF71FFDFDF7A4FD32480068FDF726
:1031800017F8044622460B462FA16846FFF7CAFAF5
:103190000823802236210020FDF752FC3622002130
:1031A0006846FDF707FDFDF78CFD4FF47A70FDF7DB
:1031B000B5FD52E7883800081000002048523A2038
:1031C000252E3166000000001400002053504F32BD
:1031D0003A20252E3166000008000020456E762E2C
:1031E0002068756D69646974793A20252E3166000E
:1031F0000C000020456E762E2074656D706572613E
:10320000747572653A20252E316600000400002096
:10321000536B696E2074656D70657261747572654B
:103220003A20252E31660000000000204162732EF6
:10323000207261642E2074656D702E3A20252E3127
:1032400066000000180000204D65742E206865613E
:10325000742070726F642E3A20252E3166000000B3
:1032600002030405060708090A0B0C0D0E0F1010C7
:103270000102000000000000000001020304060734
:103280000809000000000102030400000000000023
:10329000000000008080808080008000A0A0A0004E
:1032A000000000005050F850F85050002078A070F6
:1032B00028F02000C0C81020409818006090A0405E
:1032C000A8906800C040800000000000204080807E
:1032D000804020008040202020408000005020F8C6
:1032E00020500000002020F82020000000000000F6
:1032F00000C04080000000F8000000000000000056
:1033000000C0C0000008102040800000708898A80D
:10331000C88870002060202020207000708808304D
:103320004080F80070880830088870001030509095
:10333000F8101000F880F00808887000304080F025
:1033400088887000F808102040404000708888701D
:1033500088887000708888780810600000C0C000FD
:10336000C0C000000000C0C000C0408010204080ED
:10337000402010000000F800F800000080402010FD
:1033800020408000708808102000200070880868A5
:10339000A8A87000708888F888888800F08888F06D
:1033A0008888F0007088808080887000E09088882D
:1033B0008890E000F88080F08080F800F88080F04D
:1033C000808080007088808098887800888888F85D
:1033D00088888800E04040404040E00038101010ED
:1033E000109060008890A0C0A090880080808080AD
:1033F0008080F80088D8A8A8888888008888C8A80D
:10340000988888007088888888887000F08888F09C
:103410008080800070888888A8906800F08888F094
:10342000A09088007088807008887000F8202020A4
:10343000202020008888888888887000888888886C
:1034400088502000888888A8A8A850008888502024
:10345000508888008888502020202000F8081020FC
:103460004080F800E08080808080E0000080402084
:1034700010080000E02020202020E00020508800DC
:103480000000000000000000000000F88040200064
:103490000000000000007008788878008080B0C8C4
:1034A0008888F000000060908090600008086898AC
:1034B0008888780000007088F8807000205040E014
:1034C0004040400000007888887808708080B0C84C
:1034D00088888800800080808080800020006020B4
:1034E000202020C0808090A0C0A09000C04040401C
:1034F0004040E0000000D0A8888888000000B0D0DC
:103500009090900000006090909060000000E0902B
:1035100090E0808000007090907010100000A0C0BB
:1035200080808000000070806010E0004040E0403B
:10353000404040000000909090907000000088880B
:103540008850200000008888A8A8500000008850FB
:103550002050880000009090907010600000F810DB
:103560002040F80020404080404020004040404043
:103570004040400080404020404080006890000073
:1035800000000000030301008C3200080202010069
:1035900094320008040401009C3200080606010071
:1035A000A432000806060100AC320008060601003D
:1035B000B432000806060100BC3200080303010013
:1035C000C432000804040100CC32000804040100E5
:1035D000D432000806060100DC32000806060100AD
:1035E000E432000803030100EC3200080606010083
:1035F000F432000803030100FC3200080606010053
:1036000004330008060601000C330008060601001A
:1036100014330008060601001C33000806060100EA
:1036200024330008060601002C33000806060100BA
:1036300034330008060601003C330008060601008A
:1036400044330008060601004C330008060601005A
:1036500054330008030301005C3300080303010036
:1036600064330008050501006C33000806060100FC
:1036700074330008050501007C33000806060100CC
:1036800084330008060601008C330008060601009A
:1036900094330008060601009C330008060601006A
:1036A000A433000806060100AC330008060601003A
:1036B000B433000806060100BC330008060601000A
:1036C000C433000806060100CC33000804040100DE
:1036D000D433000806060100DC33000806060100AA
:1036E000E433000806060100EC330008060601007A
:1036F000F433000806060100FC330008060601004A
:1037000004340008060601000C3400080606010017
:1037100014340008060601001C34000806060100E7
:1037200024340008060601002C34000806060100B7
:1037300034340008060601003C3400080606010087
:1037400044340008060601004C3400080606010057
:1037500054340008060601005C340008040401002B
:1037600064340008060601006C34000804040100FB
:1037700074340008060601007C34000806060100C7
:1037800084340008060601008C3400080606010097
:1037900094340008060601009C3400080505010069
:1037A000A434000806060100AC3400080606010037
:1037B000B434000805050100BC3400080606010009
:1037C000C434000806060100CC34000802020100DF
:1037D000D434000804040100DC34000805050100AD
:1037E000E434000804040100EC340008060601007B
:1037F000F434000805050100FC340008050501004B
:1038000004350008050501000C3500080505010018
:1038100014350008040401001C35000805050100EA
:1038200024350008040401002C35000805050100BA
:1038300034350008060601003C3500080606010084
:1038400044350008060601004C3500080505010056
:1038500054350008060601005C3500080404010028
:1038600064350008030301006C35000804040100FE
:1038700074350008060601007C35000820007E0033
:103880008435000800000000F9080008F10900086C
:10389000210A0008270A00080000000008080101AA
:1038A0007C38000800000000C83800080000002034
:1038B0003400000084270008FC3800083400002091
:1038C000B408000094270008666606429A99F14100
:1038D000000070420000D4410000A0420000C44239
:1038E000E1FAC742000000001000000001000000E3
:0C38F0000024F4000000000000000000B4
:0400000508000131BD
:00000001FF
